Invoice Number:xxxx
B02590032983SWISHER SWEETS 2 FOR 1.19000000002299  0000010000800000000000000
B02590032988SWISHER SWEETS CREAM 1.19000000002299  0000010000200000000000000
B02590033672SWISHER BLK GRAPE 2/1.29 000000002599  0000010000300000000000000
B02590037931SWISHER SWEETS GOLD 2 FOR000000002299  0000010000200000000000000
B02590033673SWISHER BLK BERRY 2 CIGAR000000002599  0000010000100000000000000
B02590033674SWISHER BLK WINE 2/ 1.29 000000002599  0000010000100000000000000
B02590033671SWISHER BLK CHERRY 2/1.29000000002599  0000010000300000000000000
B07161034076DUTCH 2 FOR .99C OG FUSIO000000001999  0000010000100000000000000
B07161034119DUTCH BERRY FUSION 2/1.29000000002549  0000010000100000000000000
B07161034133DUTCH DIAMOND FUSION     000000025449  0000010000100000000000000
B85876500582SHOW SWEET 5/! 15*3      000000000999  0000010000200000000000000
B85876500867SHOW WET & FRUITY 5/$1 15000000000999  0000010000200000000000000
B03170023895GAME 2 FOR 1.29 ICED DONU000000002499  0000010000100000000000000
B02590034587POM POM RED 3/$1.19      000000001049  0000010000600000000000000
B03170023802GAME 2 FOR 1.29 RED SWEET000000002499  0000010000200000000000000
B03170023803GAME 2 FOR 1.29 BLACK SWE000000002499  0000010000200000000000000
B03170023794GAME 2 FOR 1.29 GREEN    000000002499  0000010000300000000000000
B03170023791GAME 2 FOR 1.29 HONEY    000000002499  0000010000100000000000000
B842426165274K DIAMOND 4 FOR 1.19    000000001099  0000010000300000000000000
B842426165454K GRAPE 4 FOR$1.19      000000001099  0000010000300000000000000
B03170023799GAME 2 FOR 1.29 DIAMOND  000000002499  0000010000200000000000000
B03170023770WHITE OWL 2 FOR $1.19 SIL000000002299  0000010000200000000000000
B842426165484K'S SWEET DELICIOUS 4 FO000000001099  0000010000200000000000000
B03170023898GARCIA VEGA 2 FOR 1.49 GR000000001599  0000010000600000000000000
B78476207231ZIG ZAG PEACH 3/99 CENT  000000000849  0000010000100000000000000
B78476207232ZIG ZAG STRAIGHT UP 3/.99000000000849  0000010000200000000000000
B02590024079SWISHER SWEET MINI DIMOND000000001679  0000010000200000000000000
B02590024077SWISHER SWEETS MINI GREEN000000001679  0000010000100000000000000
B02590024092SWISHER SWEET MINI ISLAND000000001679  0000010000100000000000000
B84242617451GOOD TIMES MINI 3 FOR 1.1000000000979  0000010000100000000000000
B84242617454GOODTIMES MINI GREEN SWEE000000000979  0000010000100000000000000
B81410102511SUPREME TROPICAL BUZZ 5/.000000001059  0000010000400000000000000
B81410102505SUPREM BLE GRAPE 5 FOR 1.000000001088  0000010000100000000000000
B81410102508SUPREME BLUEBERRY        000000001059  0000010000100000000000000
B81410102507SUPREM BLE GREEN HAZE 5 F000000001088  0000010000200000000000000
B07161101952PENNZOIL ATF 6PK         000000002599  0000010000100000000000000
B07313500817ITASCA 2 CYCLE OIL 12CT  000000001499  0000010000100000000000000
B10042035000ALL TEMPERATURE ANTI FREE000000002549  0000010000100000000000000
B04900002890COKE 12OZ 12PK           000000000699  0000010002500000000000000
B07800008216DR PEPPER 12OZ 12 PK     000000000549  0000010000500000000000000
B04900003073FANTA ORANGE 12PK        000000000699  0000010000600000000000000
